{
  "_format": "hh-sol-artifact-1",
  "contractName": "NFT",
  "sourceName": "contracts/NFT.sol",
  "abi": [
    {
      "inputs": [
        {
          "internalType": "address",
          "name": "marketPlaceAddress",
          "type": "address"
        }
      ],
      "stateMutability": "nonpayable",
      "type": "constructor"
    },
    {
      "anonymous": false,
      "inputs": [
        {
          "indexed": true,
          "internalType": "address",
          "name": "owner",
          "type": "address"
        },
        {
          "indexed": true,
          "internalType": "address",
          "name": "approved",
          "type": "address"
        },
        {
          "indexed": true,
          "internalType": "uint256",
          "name": "tokenId",
          "type": "uint256"
        }
      ],
      "name": "Approval",
      "type": "event"
    },
    {
      "anonymous": false,
      "inputs": [
        {
          "indexed": true,
          "internalType": "address",
          "name": "owner",
          "type": "address"
        },
        {
          "indexed": true,
          "internalType": "address",
          "name": "operator",
          "type": "address"
        },
        {
          "indexed": false,
          "internalType": "bool",
          "name": "approved",
          "type": "bool"
        }
      ],
      "name": "ApprovalForAll",
      "type": "event"
    },
    {
      "anonymous": false,
      "inputs": [
        {
          "indexed": true,
          "internalType": "address",
          "name": "from",
          "type": "address"
        },
        {
          "indexed": true,
          "internalType": "address",
          "name": "to",
          "type": "address"
        },
        {
          "indexed": true,
          "internalType": "uint256",
          "name": "tokenId",
          "type": "uint256"
        }
      ],
      "name": "Transfer",
      "type": "event"
    },
    {
      "inputs": [
        {
          "internalType": "address",
          "name": "to",
          "type": "address"
        },
        {
          "internalType": "uint256",
          "name": "tokenId",
          "type": "uint256"
        }
      ],
      "name": "approve",
      "outputs": [],
      "stateMutability": "nonpayable",
      "type": "function"
    },
    {
      "inputs": [
        {
          "internalType": "address",
          "name": "owner",
          "type": "address"
        }
      ],
      "name": "balanceOf",
      "outputs": [
        {
          "internalType": "uint256",
          "name": "",
          "type": "uint256"
        }
      ],
      "stateMutability": "view",
      "type": "function"
    },
    {
      "inputs": [
        {
          "internalType": "string",
          "name": "tokenURI",
          "type": "string"
        }
      ],
      "name": "createToken",
      "outputs": [
        {
          "internalType": "uint256",
          "name": "",
          "type": "uint256"
        }
      ],
      "stateMutability": "nonpayable",
      "type": "function"
    },
    {
      "inputs": [
        {
          "internalType": "uint256",
          "name": "tokenId",
          "type": "uint256"
        }
      ],
      "name": "getApproved",
      "outputs": [
        {
          "internalType": "address",
          "name": "",
          "type": "address"
        }
      ],
      "stateMutability": "view",
      "type": "function"
    },
    {
      "inputs": [
        {
          "internalType": "address",
          "name": "owner",
          "type": "address"
        },
        {
          "internalType": "address",
          "name": "operator",
          "type": "address"
        }
      ],
      "name": "isApprovedForAll",
      "outputs": [
        {
          "internalType": "bool",
          "name": "",
          "type": "bool"
        }
      ],
      "stateMutability": "view",
      "type": "function"
    },
    {
      "inputs": [],
      "name": "name",
      "outputs": [
        {
          "internalType": "string",
          "name": "",
          "type": "string"
        }
      ],
      "stateMutability": "view",
      "type": "function"
    },
    {
      "inputs": [
        {
          "internalType": "uint256",
          "name": "tokenId",
          "type": "uint256"
        }
      ],
      "name": "ownerOf",
      "outputs": [
        {
          "internalType": "address",
          "name": "",
          "type": "address"
        }
      ],
      "stateMutability": "view",
      "type": "function"
    },
    {
      "inputs": [
        {
          "internalType": "address",
          "name": "from",
          "type": "address"
        },
        {
          "internalType": "address",
          "name": "to",
          "type": "address"
        },
        {
          "internalType": "uint256",
          "name": "tokenId",
          "type": "uint256"
        }
      ],
      "name": "safeTransferFrom",
      "outputs": [],
      "stateMutability": "nonpayable",
      "type": "function"
    },
    {
      "inputs": [
        {
          "internalType": "address",
          "name": "from",
          "type": "address"
        },
        {
          "internalType": "address",
          "name": "to",
          "type": "address"
        },
        {
          "internalType": "uint256",
          "name": "tokenId",
          "type": "uint256"
        },
        {
          "internalType": "bytes",
          "name": "_data",
          "type": "bytes"
        }
      ],
      "name": "safeTransferFrom",
      "outputs": [],
      "stateMutability": "nonpayable",
      "type": "function"
    },
    {
      "inputs": [
        {
          "internalType": "address",
          "name": "operator",
          "type": "address"
        },
        {
          "internalType": "bool",
          "name": "approved",
          "type": "bool"
        }
      ],
      "name": "setApprovalForAll",
      "outputs": [],
      "stateMutability": "nonpayable",
      "type": "function"
    },
    {
      "inputs": [],
      "name": "setApprovalOwner",
      "outputs": [],
      "stateMutability": "nonpayable",
      "type": "function"
    },
    {
      "inputs": [
        {
          "internalType": "bytes4",
          "name": "interfaceId",
          "type": "bytes4"
        }
      ],
      "name": "supportsInterface",
      "outputs": [
        {
          "internalType": "bool",
          "name": "",
          "type": "bool"
        }
      ],
      "stateMutability": "view",
      "type": "function"
    },
    {
      "inputs": [],
      "name": "symbol",
      "outputs": [
        {
          "internalType": "string",
          "name": "",
          "type": "string"
        }
      ],
      "stateMutability": "view",
      "type": "function"
    },
    {
      "inputs": [
        {
          "internalType": "uint256",
          "name": "tokenId",
          "type": "uint256"
        }
      ],
      "name": "tokenURI",
      "outputs": [
        {
          "internalType": "string",
          "name": "",
          "type": "string"
        }
      ],
      "stateMutability": "view",
      "type": "function"
    },
    {
      "inputs": [
        {
          "internalType": "address",
          "name": "from",
          "type": "address"
        },
        {
          "internalType": "address",
          "name": "to",
          "type": "address"
        },
        {
          "internalType": "uint256",
          "name": "tokenId",
          "type": "uint256"
        }
      ],
      "name": "transferFrom",
      "outputs": [],
      "stateMutability": "nonpayable",
      "type": "function"
    }
  ],
  "bytecode": "0x60806040523480156200001157600080fd5b5060405162002e9e38038062002e9e8339818101604052810190620000379190620001e6565b6040518060400160405280600f81526020017f5975204769204f6820546f6b656e7300000000000000000000000000000000008152506040518060400160405280600481526020017f59554749000000000000000000000000000000000000000000000000000000008152508160009080519060200190620000bb9291906200011f565b508060019080519060200190620000d49291906200011f565b50505080600860006101000a81548173ffffffffffffffffffffffffffffffffffffffff021916908373ffffffffffffffffffffffffffffffffffffffff16021790555050620002c5565b8280546200012d9062000246565b90600052602060002090601f0160209004810192826200015157600085556200019d565b82601f106200016c57805160ff19168380011785556200019d565b828001600101855582156200019d579182015b828111156200019c5782518255916020019190600101906200017f565b5b509050620001ac9190620001b0565b5090565b5b80821115620001cb576000816000905550600101620001b1565b5090565b600081519050620001e081620002ab565b92915050565b600060208284031215620001f957600080fd5b60006200020984828501620001cf565b91505092915050565b60006200021f8262000226565b9050919050565b600073ffffffffffffffffffffffffffffffffffffffff82169050919050565b600060028204905060018216806200025f57607f821691505b602082108114156200027657620002756200027c565b5b50919050565b7f4e487b7100000000000000000000000000000000000000000000000000000000600052602260045260246000fd5b620002b68162000212565b8114620002c257600080fd5b50565b612bc980620002d56000396000f3fe608060405234801561001057600080fd5b50600436106100f55760003560e01c806345576f9411610097578063a22cb46511610066578063a22cb46514610284578063b88d4fde146102a0578063c87b56dd146102bc578063e985e9c5146102ec576100f5565b806345576f94146101d65780636352211e1461020657806370a082311461023657806395d89b4114610266576100f5565b8063095ea7b3116100d3578063095ea7b31461017857806317784f091461019457806323b872dd1461019e57806342842e0e146101ba576100f5565b806301ffc9a7146100fa57806306fdde031461012a578063081812fc14610148575b600080fd5b610114600480360381019061010f9190611c35565b61031c565b604051610121919061207c565b60405180910390f35b6101326103fe565b60405161013f9190612097565b60405180910390f35b610162600480360381019061015d9190611cc8565b610490565b60405161016f9190612015565b60405180910390f35b610192600480360381019061018d9190611bf9565b610515565b005b61019c61062d565b005b6101b860048036038101906101b39190611af3565b61065c565b005b6101d460048036038101906101cf9190611af3565b6106bc565b005b6101f060048036038101906101eb9190611c87565b6106dc565b6040516101fd91906122b9565b60405180910390f35b610220600480360381019061021b9190611cc8565b610740565b60405161022d9190612015565b60405180910390f35b610250600480360381019061024b9190611a8e565b6107f2565b60405161025d91906122b9565b60405180910390f35b61026e6108aa565b60405161027b9190612097565b60405180910390f35b61029e60048036038101906102999190611bbd565b61093c565b005b6102ba60048036038101906102b59190611b42565b610abd565b005b6102d660048036038101906102d19190611cc8565b610b1f565b6040516102e39190612097565b60405180910390f35b61030660048036038101906103019190611ab7565b610c71565b604051610313919061207c565b60405180910390f35b60007f80ac58cd000000000000000000000000000000000000000000000000000000007bffffffffffffffffffffffffffffffffffffffffffffffffffffffff1916827bffffffffffffffffffffffffffffffffffffffffffffffffffffffff191614806103e757507f5b5e139f000000000000000000000000000000000000000000000000000000007bffffffffffffffffffffffffffffffffffffffffffffffffffffffff1916827bffffffffffffffffffffffffffffffffffffffffffffffffffffffff1916145b806103f757506103f682610d05565b5b9050919050565b60606000805461040d9061250f565b80601f01602080910402602001604051908101604052809291908181526020018280546104399061250f565b80156104865780601f1061045b57610100808354040283529160200191610486565b820191906000526020600020905b81548152906001019060200180831161046957829003601f168201915b5050505050905090565b600061049b82610d6f565b6104da576040517f08c379a00000000000000000000000000000000000000000000000000000000081526004016104d190612219565b60405180910390fd5b6004600083815260200190815260200160002060009054906101000a900473ffffffffffffffffffffffffffffffffffffffff169050919050565b600061052082610740565b90508073ffffffffffffffffffffffffffffffffffffffff168373ffffffffffffffffffffffffffffffffffffffff161415610591576040517f08c379a000000000000000000000000000000000000000000000000000000000815260040161058890612279565b60405180910390fd5b8073ffffffffffffffffffffffffffffffffffffffff166105b0610ddb565b73ffffffffffffffffffffffffffffffffffffffff1614806105df57506105de816105d9610ddb565b610c71565b5b61061e576040517f08c379a000000000000000000000000000000000000000000000000000000000815260040161061590612159565b60405180910390fd5b6106288383610de3565b505050565b61065a600860009054906101000a900473ffffffffffffffffffffffffffffffffffffffff16600161093c565b565b61066d610667610ddb565b82610e9c565b6106ac576040517f08c379a00000000000000000000000000000000000000000000000000000000081526004016106a390612299565b60405180910390fd5b6106b7838383610f7a565b505050565b6106d783838360405180602001604052806000815250610abd565b505050565b60006106e860076111d6565b60006106f460076111ec565b905061070033826111fa565b61070a81846113c8565b610737600860009054906101000a900473ffffffffffffffffffffffffffffffffffffffff16600161093c565b80915050919050565b6000806002600084815260200190815260200160002060009054906101000a900473ffffffffffffffffffffffffffffffffffffffff169050600073ffffffffffffffffffffffffffffffffffffffff168173ffffffffffffffffffffffffffffffffffffffff1614156107e9576040517f08c379a00000000000000000000000000000000000000000000000000000000081526004016107e090612199565b60405180910390fd5b80915050919050565b60008073ffffffffffffffffffffffffffffffffffffffff168273ffffffffffffffffffffffffffffffffffffffff161415610863576040517f08c379a000000000000000000000000000000000000000000000000000000000815260040161085a90612179565b60405180910390fd5b600360008373ffffffffffffffffffffffffffffffffffffffff1673ffffffffffffffffffffffffffffffffffffffff168152602001908152602001600020549050919050565b6060600180546108b99061250f565b80601f01602080910402602001604051908101604052809291908181526020018280546108e59061250f565b80156109325780601f1061090757610100808354040283529160200191610932565b820191906000526020600020905b81548152906001019060200180831161091557829003601f168201915b5050505050905090565b610944610ddb565b73ffffffffffffffffffffffffffffffffffffffff168273ffffffffffffffffffffffffffffffffffffffff1614156109b2576040517f08c379a00000000000000000000000000000000000000000000000000000000081526004016109a990612119565b60405180910390fd5b80600560006109bf610ddb565b73ffffffffffffffffffffffffffffffffffffffff1673ffffffffffffffffffffffffffffffffffffffff16815260200190815260200160002060008473ffffffffffffffffffffffffffffffffffffffff1673ffffffffffffffffffffffffffffffffffffffff16815260200190815260200160002060006101000a81548160ff0219169083151502179055508173ffffffffffffffffffffffffffffffffffffffff16610a6c610ddb565b73ffffffffffffffffffffffffffffffffffffffff167f17307eab39ab6107e8899845ad3d59bd9653f200f220920489ca2b5937696c3183604051610ab1919061207c565b60405180910390a35050565b610ace610ac8610ddb565b83610e9c565b610b0d576040517f08c379a0000000000000000000000000000000000000000000000000000000008152600401610b0490612299565b60405180910390fd5b610b198484848461143c565b50505050565b6060610b2a82610d6f565b610b69576040517f08c379a0000000000000000000000000000000000000000000000000000000008152600401610b60906121f9565b60405180910390fd5b6000600660008481526020019081526020016000208054610b899061250f565b80601f0160208091040260200160405190810160405280929190818152602001828054610bb59061250f565b8015610c025780601f10610bd757610100808354040283529160200191610c02565b820191906000526020600020905b815481529060010190602001808311610be557829003601f168201915b505050505090506000610c13611498565b9050600081511415610c29578192505050610c6c565b600082511115610c5e578082604051602001610c46929190611ff1565b60405160208183030381529060405292505050610c6c565b610c67846114af565b925050505b919050565b6000600560008473ffffffffffffffffffffffffffffffffffffffff1673ffffffffffffffffffffffffffffffffffffffff16815260200190815260200160002060008373ffffffffffffffffffffffffffffffffffffffff1673ffffffffffffffffffffffffffffffffffffffff16815260200190815260200160002060009054906101000a900460ff16905092915050565b60007f01ffc9a7000000000000000000000000000000000000000000000000000000007bffffffffffffffffffffffffffffffffffffffffffffffffffffffff1916827bffffffffffffffffffffffffffffffffffffffffffffffffffffffff1916149050919050565b60008073ffffffffffffffffffffffffffffffffffffffff166002600084815260200190815260200160002060009054906101000a900473ffffffffffffffffffffffffffffffffffffffff1673ffffffffffffffffffffffffffffffffffffffff1614159050919050565b600033905090565b816004600083815260200190815260200160002060006101000a81548173ffffffffffffffffffffffffffffffffffffffff021916908373ffffffffffffffffffffffffffffffffffffffff160217905550808273ffffffffffffffffffffffffffffffffffffffff16610e5683610740565b73ffffffffffffffffffffffffffffffffffffffff167f8c5be1e5ebec7d5bd14f71427d1e84f3dd0314c0f7b2291e5b200ac8c7c3b92560405160405180910390a45050565b6000610ea782610d6f565b610ee6576040517f08c379a0000000000000000000000000000000000000000000000000000000008152600401610edd90612139565b60405180910390fd5b6000610ef183610740565b90508073ffffffffffffffffffffffffffffffffffffffff168473ffffffffffffffffffffffffffffffffffffffff161480610f6057508373ffffffffffffffffffffffffffffffffffffffff16610f4884610490565b73ffffffffffffffffffffffffffffffffffffffff16145b80610f715750610f708185610c71565b5b91505092915050565b8273ffffffffffffffffffffffffffffffffffffffff16610f9a82610740565b73ffffffffffffffffffffffffffffffffffffffff1614610ff0576040517f08c379a0000000000000000000000000000000000000000000000000000000008152600401610fe790612239565b60405180910390fd5b600073ffffffffffffffffffffffffffffffffffffffff168273ffffffffffffffffffffffffffffffffffffffff161415611060576040517f08c379a0000000000000000000000000000000000000000000000000000000008152600401611057906120f9565b60405180910390fd5b61106b838383611556565b611076600082610de3565b6001600360008573ffffffffffffffffffffffffffffffffffffffff1673ffffffffffffffffffffffffffffffffffffffff16815260200190815260200160002060008282546110c69190612425565b925050819055506001600360008473ffffffffffffffffffffffffffffffffffffffff1673ffffffffffffffffffffffffffffffffffffffff168152602001908152602001600020600082825461111d919061239e565b92505081905550816002600083815260200190815260200160002060006101000a81548173ffffffffffffffffffffffffffffffffffffffff021916908373ffffffffffffffffffffffffffffffffffffffff160217905550808273ffffffffffffffffffffffffffffffffffffffff168473ffffffffffffffffffffffffffffffffffffffff167fddf252ad1be2c89b69c2b068fc378daa952ba7f163c4a11628f55a4df523b3ef60405160405180910390a4505050565b6001816000016000828254019250508190555050565b600081600001549050919050565b600073ffffffffffffffffffffffffffffffffffffffff168273ffffffffffffffffffffffffffffffffffffffff16141561126a576040517f08c379a0000000000000000000000000000000000000000000000000000000008152600401611261906121d9565b60405180910390fd5b61127381610d6f565b156112b3576040517f08c379a00000000000000000000000000000000000000000000000000000000081526004016112aa906120d9565b60405180910390fd5b6112bf60008383611556565b6001600360008473ffffffffffffffffffffffffffffffffffffffff1673ffffffffffffffffffffffffffffffffffffffff168152602001908152602001600020600082825461130f919061239e565b92505081905550816002600083815260200190815260200160002060006101000a81548173ffffffffffffffffffffffffffffffffffffffff021916908373ffffffffffffffffffffffffffffffffffffffff160217905550808273ffffffffffffffffffffffffffffffffffffffff16600073ffffffffffffffffffffffffffffffffffffffff167fddf252ad1be2c89b69c2b068fc378daa952ba7f163c4a11628f55a4df523b3ef60405160405180910390a45050565b6113d182610d6f565b611410576040517f08c379a0000000000000000000000000000000000000000000000000000000008152600401611407906121b9565b60405180910390fd5b806006600084815260200190815260200160002090805190602001906114379291906118b2565b505050565b611447848484610f7a565b6114538484848461155b565b611492576040517f08c379a0000000000000000000000000000000000000000000000000000000008152600401611489906120b9565b60405180910390fd5b50505050565b606060405180602001604052806000815250905090565b60606114ba82610d6f565b6114f9576040517f08c379a00000000000000000000000000000000000000000000000000000000081526004016114f090612259565b60405180910390fd5b6000611503611498565b90506000815111611523576040518060200160405280600081525061154e565b8061152d846116f2565b60405160200161153e929190611ff1565b6040516020818303038152906040525b915050919050565b505050565b600061157c8473ffffffffffffffffffffffffffffffffffffffff1661189f565b156116e5578373ffffffffffffffffffffffffffffffffffffffff1663150b7a026115a5610ddb565b8786866040518563ffffffff1660e01b81526004016115c79493929190612030565b602060405180830381600087803b1580156115e157600080fd5b505af192505050801561161257506040513d601f19601f8201168201806040525081019061160f9190611c5e565b60015b611695573d8060008114611642576040519150601f19603f3d011682016040523d82523d6000602084013e611647565b606091505b5060008151141561168d576040517f08c379a0000000000000000000000000000000000000000000000000000000008152600401611684906120b9565b60405180910390fd5b805181602001fd5b63150b7a0260e01b7bffffffffffffffffffffffffffffffffffffffffffffffffffffffff1916817bffffffffffffffffffffffffffffffffffffffffffffffffffffffff1916149150506116ea565b600190505b949350505050565b6060600082141561173a576040518060400160405280600181526020017f3000000000000000000000000000000000000000000000000000000000000000815250905061189a565b600082905060005b6000821461176c57808061175590612572565b915050600a8261176591906123f4565b9150611742565b60008167ffffffffffffffff8111156117ae577f4e487b7100000000000000000000000000000000000000000000000000000000600052604160045260246000fd5b6040519080825280601f01601f1916602001820160405280156117e05781602001600182028036833780820191505090505b5090505b60008514611893576001826117f99190612425565b9150600a8561180891906125bb565b6030611814919061239e565b60f81b818381518110611850577f4e487b7100000000000000000000000000000000000000000000000000000000600052603260045260246000fd5b60200101907effffffffffffffffffffffffffffffffffffffffffffffffffffffffffffff1916908160001a905350600a8561188c91906123f4565b94506117e4565b8093505050505b919050565b600080823b905060008111915050919050565b8280546118be9061250f565b90600052602060002090601f0160209004810192826118e05760008555611927565b82601f106118f957805160ff1916838001178555611927565b82800160010185558215611927579182015b8281111561192657825182559160200191906001019061190b565b5b5090506119349190611938565b5090565b5b80821115611951576000816000905550600101611939565b5090565b6000611968611963846122f9565b6122d4565b90508281526020810184848401111561198057600080fd5b61198b8482856124cd565b509392505050565b60006119a66119a18461232a565b6122d4565b9050828152602081018484840111156119be57600080fd5b6119c98482856124cd565b509392505050565b6000813590506119e081612b37565b92915050565b6000813590506119f581612b4e565b92915050565b600081359050611a0a81612b65565b92915050565b600081519050611a1f81612b65565b92915050565b600082601f830112611a3657600080fd5b8135611a46848260208601611955565b91505092915050565b600082601f830112611a6057600080fd5b8135611a70848260208601611993565b91505092915050565b600081359050611a8881612b7c565b92915050565b600060208284031215611aa057600080fd5b6000611aae848285016119d1565b91505092915050565b60008060408385031215611aca57600080fd5b6000611ad8858286016119d1565b9250506020611ae9858286016119d1565b9150509250929050565b600080600060608486031215611b0857600080fd5b6000611b16868287016119d1565b9350506020611b27868287016119d1565b9250506040611b3886828701611a79565b9150509250925092565b60008060008060808587031215611b5857600080fd5b6000611b66878288016119d1565b9450506020611b77878288016119d1565b9350506040611b8887828801611a79565b925050606085013567ffffffffffffffff811115611ba557600080fd5b611bb187828801611a25565b91505092959194509250565b60008060408385031215611bd057600080fd5b6000611bde858286016119d1565b9250506020611bef858286016119e6565b9150509250929050565b60008060408385031215611c0c57600080fd5b6000611c1a858286016119d1565b9250506020611c2b85828601611a79565b9150509250929050565b600060208284031215611c4757600080fd5b6000611c55848285016119fb565b91505092915050565b600060208284031215611c7057600080fd5b6000611c7e84828501611a10565b91505092915050565b600060208284031215611c9957600080fd5b600082013567ffffffffffffffff811115611cb357600080fd5b611cbf84828501611a4f565b91505092915050565b600060208284031215611cda57600080fd5b6000611ce884828501611a79565b91505092915050565b611cfa81612459565b82525050565b611d098161246b565b82525050565b6000611d1a8261235b565b611d248185612371565b9350611d348185602086016124dc565b611d3d816126a8565b840191505092915050565b6000611d5382612366565b611d5d8185612382565b9350611d6d8185602086016124dc565b611d76816126a8565b840191505092915050565b6000611d8c82612366565b611d968185612393565b9350611da68185602086016124dc565b80840191505092915050565b6000611dbf603283612382565b9150611dca826126b9565b604082019050919050565b6000611de2601c83612382565b9150611ded82612708565b602082019050919050565b6000611e05602483612382565b9150611e1082612731565b604082019050919050565b6000611e28601983612382565b9150611e3382612780565b602082019050919050565b6000611e4b602c83612382565b9150611e56826127a9565b604082019050919050565b6000611e6e603883612382565b9150611e79826127f8565b604082019050919050565b6000611e91602a83612382565b9150611e9c82612847565b604082019050919050565b6000611eb4602983612382565b9150611ebf82612896565b604082019050919050565b6000611ed7602e83612382565b9150611ee2826128e5565b604082019050919050565b6000611efa602083612382565b9150611f0582612934565b602082019050919050565b6000611f1d603183612382565b9150611f288261295d565b604082019050919050565b6000611f40602c83612382565b9150611f4b826129ac565b604082019050919050565b6000611f63602983612382565b9150611f6e826129fb565b604082019050919050565b6000611f86602f83612382565b9150611f9182612a4a565b604082019050919050565b6000611fa9602183612382565b9150611fb482612a99565b604082019050919050565b6000611fcc603183612382565b9150611fd782612ae8565b604082019050919050565b611feb816124c3565b82525050565b6000611ffd8285611d81565b91506120098284611d81565b91508190509392505050565b600060208201905061202a6000830184611cf1565b92915050565b60006080820190506120456000830187611cf1565b6120526020830186611cf1565b61205f6040830185611fe2565b81810360608301526120718184611d0f565b905095945050505050565b60006020820190506120916000830184611d00565b92915050565b600060208201905081810360008301526120b18184611d48565b905092915050565b600060208201905081810360008301526120d281611db2565b9050919050565b600060208201905081810360008301526120f281611dd5565b9050919050565b6000602082019050818103600083015261211281611df8565b9050919050565b6000602082019050818103600083015261213281611e1b565b9050919050565b6000602082019050818103600083015261215281611e3e565b9050919050565b6000602082019050818103600083015261217281611e61565b9050919050565b6000602082019050818103600083015261219281611e84565b9050919050565b600060208201905081810360008301526121b281611ea7565b9050919050565b600060208201905081810360008301526121d281611eca565b9050919050565b600060208201905081810360008301526121f281611eed565b9050919050565b6000602082019050818103600083015261221281611f10565b9050919050565b6000602082019050818103600083015261223281611f33565b9050919050565b6000602082019050818103600083015261225281611f56565b9050919050565b6000602082019050818103600083015261227281611f79565b9050919050565b6000602082019050818103600083015261229281611f9c565b9050919050565b600060208201905081810360008301526122b281611fbf565b9050919050565b60006020820190506122ce6000830184611fe2565b92915050565b60006122de6122ef565b90506122ea8282612541565b919050565b6000604051905090565b600067ffffffffffffffff82111561231457612313612679565b5b61231d826126a8565b9050602081019050919050565b600067ffffffffffffffff82111561234557612344612679565b5b61234e826126a8565b9050602081019050919050565b600081519050919050565b600081519050919050565b600082825260208201905092915050565b600082825260208201905092915050565b600081905092915050565b60006123a9826124c3565b91506123b4836124c3565b9250827fffffffffffffffffffffffffffffffffffffffffffffffffffffffffffffffff038211156123e9576123e86125ec565b5b828201905092915050565b60006123ff826124c3565b915061240a836124c3565b92508261241a5761241961261b565b5b828204905092915050565b6000612430826124c3565b915061243b836124c3565b92508282101561244e5761244d6125ec565b5b828203905092915050565b6000612464826124a3565b9050919050565b60008115159050919050565b60007fffffffff0000000000000000000000000000000000000000000000000000000082169050919050565b600073ffffffffffffffffffffffffffffffffffffffff82169050919050565b6000819050919050565b82818337600083830152505050565b60005b838110156124fa5780820151818401526020810190506124df565b83811115612509576000848401525b50505050565b6000600282049050600182168061252757607f821691505b6020821081141561253b5761253a61264a565b5b50919050565b61254a826126a8565b810181811067ffffffffffffffff8211171561256957612568612679565b5b80604052505050565b600061257d826124c3565b91507fffffffffffffffffffffffffffffffffffffffffffffffffffffffffffffffff8214156125b0576125af6125ec565b5b600182019050919050565b60006125c6826124c3565b91506125d1836124c3565b9250826125e1576125e061261b565b5b828206905092915050565b7f4e487b7100000000000000000000000000000000000000000000000000000000600052601160045260246000fd5b7f4e487b7100000000000000000000000000000000000000000000000000000000600052601260045260246000fd5b7f4e487b7100000000000000000000000000000000000000000000000000000000600052602260045260246000fd5b7f4e487b7100000000000000000000000000000000000000000000000000000000600052604160045260246000fd5b6000601f19601f8301169050919050565b7f4552433732313a207472616e7366657220746f206e6f6e20455243373231526560008201527f63656976657220696d706c656d656e7465720000000000000000000000000000602082015250565b7f4552433732313a20746f6b656e20616c7265616479206d696e74656400000000600082015250565b7f4552433732313a207472616e7366657220746f20746865207a65726f2061646460008201527f7265737300000000000000000000000000000000000000000000000000000000602082015250565b7f4552433732313a20617070726f766520746f2063616c6c657200000000000000600082015250565b7f4552433732313a206f70657261746f7220717565727920666f72206e6f6e657860008201527f697374656e7420746f6b656e0000000000000000000000000000000000000000602082015250565b7f4552433732313a20617070726f76652063616c6c6572206973206e6f74206f7760008201527f6e6572206e6f7220617070726f76656420666f7220616c6c0000000000000000602082015250565b7f4552433732313a2062616c616e636520717565727920666f7220746865207a6560008201527f726f206164647265737300000000000000000000000000000000000000000000602082015250565b7f4552433732313a206f776e657220717565727920666f72206e6f6e657869737460008201527f656e7420746f6b656e0000000000000000000000000000000000000000000000602082015250565b7f45524337323155524953746f726167653a2055524920736574206f66206e6f6e60008201527f6578697374656e7420746f6b656e000000000000000000000000000000000000602082015250565b7f4552433732313a206d696e7420746f20746865207a65726f2061646472657373600082015250565b7f45524337323155524953746f726167653a2055524920717565727920666f722060008201527f6e6f6e6578697374656e7420746f6b656e000000000000000000000000000000602082015250565b7f4552433732313a20617070726f76656420717565727920666f72206e6f6e657860008201527f697374656e7420746f6b656e0000000000000000000000000000000000000000602082015250565b7f4552433732313a207472616e73666572206f6620746f6b656e2074686174206960008201527f73206e6f74206f776e0000000000000000000000000000000000000000000000602082015250565b7f4552433732314d657461646174613a2055524920717565727920666f72206e6f60008201527f6e6578697374656e7420746f6b656e0000000000000000000000000000000000602082015250565b7f4552433732313a20617070726f76616c20746f2063757272656e74206f776e6560008201527f7200000000000000000000000000000000000000000000000000000000000000602082015250565b7f4552433732313a207472616e736665722063616c6c6572206973206e6f74206f60008201527f776e6572206e6f7220617070726f766564000000000000000000000000000000602082015250565b612b4081612459565b8114612b4b57600080fd5b50565b612b578161246b565b8114612b6257600080fd5b50565b612b6e81612477565b8114612b7957600080fd5b50565b612b85816124c3565b8114612b9057600080fd5b5056fea26469706673582212205c28f486e6096fd8a361392eacb40451e6902bfbbe77d7c59be8eed4284e21de64736f6c63430008040033",
  "linkReferences": {},
  "deployedLinkReferences": {}
}