{
  "_format": "hh-sol-artifact-1",
  "contractName": "CardMarketPlace",
  "sourceName": "contracts/CardMarketPlace.sol",
  "abi": [
    {
      "inputs": [],
      "stateMutability": "nonpayable",
      "type": "constructor"
    },
    {
      "anonymous": false,
      "inputs": [
        {
          "indexed": true,
          "internalType": "uint256",
          "name": "itemId",
          "type": "uint256"
        },
        {
          "indexed": true,
          "internalType": "address",
          "name": "nftContract",
          "type": "address"
        },
        {
          "indexed": true,
          "internalType": "uint256",
          "name": "tokenId",
          "type": "uint256"
        },
        {
          "indexed": false,
          "internalType": "address",
          "name": "seller",
          "type": "address"
        },
        {
          "indexed": false,
          "internalType": "address",
          "name": "owner",
          "type": "address"
        },
        {
          "indexed": false,
          "internalType": "uint256",
          "name": "price",
          "type": "uint256"
        },
        {
          "indexed": false,
          "internalType": "bool",
          "name": "sold",
          "type": "bool"
        }
      ],
      "name": "MarketItemCreated",
      "type": "event"
    },
    {
      "inputs": [
        {
          "internalType": "address",
          "name": "_nftContract",
          "type": "address"
        },
        {
          "internalType": "uint256",
          "name": "_tokenId",
          "type": "uint256"
        },
        {
          "internalType": "uint256",
          "name": "_price",
          "type": "uint256"
        }
      ],
      "name": "createMarketItem",
      "outputs": [],
      "stateMutability": "payable",
      "type": "function"
    },
    {
      "inputs": [
        {
          "internalType": "address",
          "name": "_nftContract",
          "type": "address"
        },
        {
          "internalType": "uint256",
          "name": "_itemId",
          "type": "uint256"
        }
      ],
      "name": "createMarketSale",
      "outputs": [],
      "stateMutability": "payable",
      "type": "function"
    },
    {
      "inputs": [],
      "name": "fetchItemsCreated",
      "outputs": [
        {
          "components": [
            {
              "internalType": "uint256",
              "name": "itemId",
              "type": "uint256"
            },
            {
              "internalType": "address",
              "name": "nftContract",
              "type": "address"
            },
            {
              "internalType": "uint256",
              "name": "tokenId",
              "type": "uint256"
            },
            {
              "internalType": "address payable",
              "name": "seller",
              "type": "address"
            },
            {
              "internalType": "address payable",
              "name": "owner",
              "type": "address"
            },
            {
              "internalType": "uint256",
              "name": "price",
              "type": "uint256"
            },
            {
              "internalType": "bool",
              "name": "sold",
              "type": "bool"
            }
          ],
          "internalType": "struct CardMarketPlace.MarketItem[]",
          "name": "",
          "type": "tuple[]"
        }
      ],
      "stateMutability": "view",
      "type": "function"
    },
    {
      "inputs": [],
      "name": "fetchMarketItems",
      "outputs": [
        {
          "components": [
            {
              "internalType": "uint256",
              "name": "itemId",
              "type": "uint256"
            },
            {
              "internalType": "address",
              "name": "nftContract",
              "type": "address"
            },
            {
              "internalType": "uint256",
              "name": "tokenId",
              "type": "uint256"
            },
            {
              "internalType": "address payable",
              "name": "seller",
              "type": "address"
            },
            {
              "internalType": "address payable",
              "name": "owner",
              "type": "address"
            },
            {
              "internalType": "uint256",
              "name": "price",
              "type": "uint256"
            },
            {
              "internalType": "bool",
              "name": "sold",
              "type": "bool"
            }
          ],
          "internalType": "struct CardMarketPlace.MarketItem[]",
          "name": "",
          "type": "tuple[]"
        }
      ],
      "stateMutability": "view",
      "type": "function"
    },
    {
      "inputs": [],
      "name": "fetchMyNfts",
      "outputs": [
        {
          "components": [
            {
              "internalType": "uint256",
              "name": "itemId",
              "type": "uint256"
            },
            {
              "internalType": "address",
              "name": "nftContract",
              "type": "address"
            },
            {
              "internalType": "uint256",
              "name": "tokenId",
              "type": "uint256"
            },
            {
              "internalType": "address payable",
              "name": "seller",
              "type": "address"
            },
            {
              "internalType": "address payable",
              "name": "owner",
              "type": "address"
            },
            {
              "internalType": "uint256",
              "name": "price",
              "type": "uint256"
            },
            {
              "internalType": "bool",
              "name": "sold",
              "type": "bool"
            }
          ],
          "internalType": "struct CardMarketPlace.MarketItem[]",
          "name": "",
          "type": "tuple[]"
        }
      ],
      "stateMutability": "view",
      "type": "function"
    },
    {
      "inputs": [
        {
          "internalType": "uint256",
          "name": "_cardId",
          "type": "uint256"
        }
      ],
      "name": "getCardPrice",
      "outputs": [
        {
          "internalType": "uint256",
          "name": "",
          "type": "uint256"
        }
      ],
      "stateMutability": "view",
      "type": "function"
    },
    {
      "inputs": [],
      "name": "getListingPrice",
      "outputs": [
        {
          "internalType": "uint256",
          "name": "",
          "type": "uint256"
        }
      ],
      "stateMutability": "view",
      "type": "function"
    }
  ],
  "bytecode": "0x60806040526658d15e1762800060045534801561001b57600080fd5b50600160008190555033600360006101000a81548173ffffffffffffffffffffffffffffffffffffffff021916908373ffffffffffffffffffffffffffffffffffffffff160217905550611a28806100746000396000f3fe6080604052600436106100705760003560e01c806358eb2df51161004e57806358eb2df5146100f65780636866537d14610112578063c23b139e1461014f578063f064c32e1461016b57610070565b80630f08efe014610075578063128ae712146100a057806312e85585146100cb575b600080fd5b34801561008157600080fd5b5061008a610196565b6040516100979190611671565b60405180910390f35b3480156100ac57600080fd5b506100b56104a3565b6040516100c29190611671565b60405180910390f35b3480156100d757600080fd5b506100e061083d565b6040516100ed9190611713565b60405180910390f35b610110600480360381019061010b9190611384565b610847565b005b34801561011e57600080fd5b50610139600480360381019061013491906113d3565b610bab565b6040516101469190611713565b60405180910390f35b61016960048036038101906101649190611348565b610bd0565b005b34801561017757600080fd5b50610180610edf565b60405161018d9190611671565b60405180910390f35b606060006101a46001611279565b905060006101b26002611279565b826101bd91906117ce565b90506000808267ffffffffffffffff811115610202577f4e487b7100000000000000000000000000000000000000000000000000000000600052604160045260246000fd5b60405190808252806020026020018201604052801561023b57816020015b61022861129d565b8152602001906001900390816102205790505b50905060005b8481101561049857600073ffffffffffffffffffffffffffffffffffffffff16600560006001846102729190611778565b815260200190815260200160002060040160009054906101000a900473ffffffffffffffffffffffffffffffffffffffff1673ffffffffffffffffffffffffffffffffffffffff1614156104855760006001826102cf9190611778565b90506000600560008381526020019081526020016000209050806040518060e0016040529081600082015481526020016001820160009054906101000a900473ffffffffffffffffffffffffffffffffffffffff1673ffffffffffffffffffffffffffffffffffffffff1673ffffffffffffffffffffffffffffffffffffffff168152602001600282015481526020016003820160009054906101000a900473ffffffffffffffffffffffffffffffffffffffff1673ffffffffffffffffffffffffffffffffffffffff1673ffffffffffffffffffffffffffffffffffffffff1681526020016004820160009054906101000a900473ffffffffffffffffffffffffffffffffffffffff1673ffffffffffffffffffffffffffffffffffffffff1673ffffffffffffffffffffffffffffffffffffffff168152602001600582015481526020016006820160009054906101000a900460ff161515151581525050848681518110610468577f4e487b7100000000000000000000000000000000000000000000000000000000600052603260045260246000fd5b60200260200101819052506001856104809190611778565b945050505b80806104909061185c565b915050610241565b508094505050505090565b606060006104b16001611279565b905060008060005b8381101561055a573373ffffffffffffffffffffffffffffffffffffffff16600560006001846104e99190611778565b815260200190815260200160002060040160009054906101000a900473ffffffffffffffffffffffffffffffffffffffff1673ffffffffffffffffffffffffffffffffffffffff161415610547576001836105449190611778565b92505b80806105529061185c565b9150506104b9565b5060008267ffffffffffffffff81111561059d577f4e487b7100000000000000000000000000000000000000000000000000000000600052604160045260246000fd5b6040519080825280602002602001820160405280156105d657816020015b6105c361129d565b8152602001906001900390816105bb5790505b50905060005b84811015610832573373ffffffffffffffffffffffffffffffffffffffff166005600060018461060c9190611778565b815260200190815260200160002060040160009054906101000a900473ffffffffffffffffffffffffffffffffffffffff1673ffffffffffffffffffffffffffffffffffffffff16141561081f5760006001826106699190611778565b90506000600560008381526020019081526020016000209050806040518060e0016040529081600082015481526020016001820160009054906101000a900473ffffffffffffffffffffffffffffffffffffffff1673ffffffffffffffffffffffffffffffffffffffff1673ffffffffffffffffffffffffffffffffffffffff168152602001600282015481526020016003820160009054906101000a900473ffffffffffffffffffffffffffffffffffffffff1673ffffffffffffffffffffffffffffffffffffffff1673ffffffffffffffffffffffffffffffffffffffff1681526020016004820160009054906101000a900473ffffffffffffffffffffffffffffffffffffffff1673ffffffffffffffffffffffffffffffffffffffff1673ffffffffffffffffffffffffffffffffffffffff168152602001600582015481526020016006820160009054906101000a900460ff161515151581525050848681518110610802577f4e487b7100000000000000000000000000000000000000000000000000000000600052603260045260246000fd5b602002602001018190525060018561081a9190611778565b945050505b808061082a9061185c565b9150506105dc565b508094505050505090565b6000600454905090565b6002600054141561088d576040517f08c379a0000000000000000000000000000000000000000000000000000000008152600401610884906116f3565b60405180910390fd5b6002600081905550600081116108d8576040517f08c379a00000000000000000000000000000000000000000000000000000000081526004016108cf906116d3565b60405180910390fd5b600454341461091c576040517f08c379a000000000000000000000000000000000000000000000000000000000815260040161091390611693565b60405180910390fd5b6109266001611287565b60006109326001611279565b90506040518060e001604052808281526020018573ffffffffffffffffffffffffffffffffffffffff1681526020018481526020013373ffffffffffffffffffffffffffffffffffffffff168152602001600073ffffffffffffffffffffffffffffffffffffffff16815260200183815260200160001515815250600560008381526020019081526020016000206000820151816000015560208201518160010160006101000a81548173ffffffffffffffffffffffffffffffffffffffff021916908373ffffffffffffffffffffffffffffffffffffffff1602179055506040820151816002015560608201518160030160006101000a81548173ffffffffffffffffffffffffffffffffffffffff021916908373ffffffffffffffffffffffffffffffffffffffff16021790555060808201518160040160006101000a81548173ffffffffffffffffffffffffffffffffffffffff021916908373ffffffffffffffffffffffffffffffffffffffff16021790555060a0820151816005015560c08201518160060160006101000a81548160ff0219169083151502179055509050508373ffffffffffffffffffffffffffffffffffffffff166323b872dd3330866040518463ffffffff1660e01b8152600401610b13939291906115f5565b600060405180830381600087803b158015610b2d57600080fd5b505af1158015610b41573d6000803e3d6000fd5b50505050828473ffffffffffffffffffffffffffffffffffffffff16827f045dfa01dcba2b36aba1d3dc4a874f4b0c5d2fbeb8d2c4b34a7d88c8d8f929d1336000876000604051610b95949392919061162c565b60405180910390a4506001600081905550505050565b6000806005600084815260200190815260200160002060050154905080915050919050565b60026000541415610c16576040517f08c379a0000000000000000000000000000000000000000000000000000000008152600401610c0d906116f3565b60405180910390fd5b6002600081905550600060056000838152602001908152602001600020600501549050600060056000848152602001908152602001600020600201549050813414610c96576040517f08c379a0000000000000000000000000000000000000000000000000000000008152600401610c8d906116b3565b60405180910390fd5b6005600084815260200190815260200160002060030160009054906101000a900473ffffffffffffffffffffffffffffffffffffffff1673ffffffffffffffffffffffffffffffffffffffff166108fc349081150290604051600060405180830381858888f19350505050158015610d12573d6000803e3d6000fd5b508373ffffffffffffffffffffffffffffffffffffffff166323b872dd3033846040518463ffffffff1660e01b8152600401610d50939291906115f5565b600060405180830381600087803b158015610d6a57600080fd5b505af1158015610d7e573d6000803e3d6000fd5b50505050336005600085815260200190815260200160002060040160006101000a81548173ffffffffffffffffffffffffffffffffffffffff021916908373ffffffffffffffffffffffffffffffffffffffff16021790555060006005600085815260200190815260200160002060030160006101000a81548173ffffffffffffffffffffffffffffffffffffffff021916908373ffffffffffffffffffffffffffffffffffffffff16021790555060016005600085815260200190815260200160002060060160006101000a81548160ff021916908315150217905550610e666002611287565b600360009054906101000a900473ffffffffffffffffffffffffffffffffffffffff1673ffffffffffffffffffffffffffffffffffffffff166108fc6004549081150290604051600060405180830381858888f19350505050158015610ed0573d6000803e3d6000fd5b50505060016000819055505050565b60606000610eed6001611279565b905060008060005b83811015610f96573373ffffffffffffffffffffffffffffffffffffffff1660056000600184610f259190611778565b815260200190815260200160002060030160009054906101000a900473ffffffffffffffffffffffffffffffffffffffff1673ffffffffffffffffffffffffffffffffffffffff161415610f8357600183610f809190611778565b92505b8080610f8e9061185c565b915050610ef5565b5060008267ffffffffffffffff811115610fd9577f4e487b7100000000000000000000000000000000000000000000000000000000600052604160045260246000fd5b60405190808252806020026020018201604052801561101257816020015b610fff61129d565b815260200190600190039081610ff75790505b50905060005b8481101561126e573373ffffffffffffffffffffffffffffffffffffffff16600560006001846110489190611778565b815260200190815260200160002060030160009054906101000a900473ffffffffffffffffffffffffffffffffffffffff1673ffffffffffffffffffffffffffffffffffffffff16141561125b5760006001826110a59190611778565b90506000600560008381526020019081526020016000209050806040518060e0016040529081600082015481526020016001820160009054906101000a900473ffffffffffffffffffffffffffffffffffffffff1673ffffffffffffffffffffffffffffffffffffffff1673ffffffffffffffffffffffffffffffffffffffff168152602001600282015481526020016003820160009054906101000a900473ffffffffffffffffffffffffffffffffffffffff1673ffffffffffffffffffffffffffffffffffffffff1673ffffffffffffffffffffffffffffffffffffffff1681526020016004820160009054906101000a900473ffffffffffffffffffffffffffffffffffffffff1673ffffffffffffffffffffffffffffffffffffffff1673ffffffffffffffffffffffffffffffffffffffff168152602001600582015481526020016006820160009054906101000a900460ff16151515158152505084868151811061123e577f4e487b7100000000000000000000000000000000000000000000000000000000600052603260045260246000fd5b60200260200101819052506001856112569190611778565b945050505b80806112669061185c565b915050611018565b508094505050505090565b600081600001549050919050565b6001816000016000828254019250508190555050565b6040518060e0016040528060008152602001600073ffffffffffffffffffffffffffffffffffffffff16815260200160008152602001600073ffffffffffffffffffffffffffffffffffffffff168152602001600073ffffffffffffffffffffffffffffffffffffffff168152602001600081526020016000151581525090565b60008135905061132d816119c4565b92915050565b600081359050611342816119db565b92915050565b6000806040838503121561135b57600080fd5b60006113698582860161131e565b925050602061137a85828601611333565b9150509250929050565b60008060006060848603121561139957600080fd5b60006113a78682870161131e565b93505060206113b886828701611333565b92505060406113c986828701611333565b9150509250925092565b6000602082840312156113e557600080fd5b60006113f384828501611333565b91505092915050565b60006114088383611549565b60e08301905092915050565b61141d81611814565b82525050565b61142c81611802565b82525050565b61143b81611802565b82525050565b600061144c8261173e565b6114568185611756565b93506114618361172e565b8060005b8381101561149257815161147988826113fc565b975061148483611749565b925050600181019050611465565b5085935050505092915050565b6114a881611826565b82525050565b6114b781611826565b82525050565b60006114ca602583611767565b91506114d5826118d4565b604082019050919050565b60006114ed604083611767565b91506114f882611923565b604082019050919050565b6000611510601f83611767565b915061151b82611972565b602082019050919050565b6000611533601f83611767565b915061153e8261199b565b602082019050919050565b60e08201600082015161155f60008501826115d7565b5060208201516115726020850182611423565b50604082015161158560408501826115d7565b5060608201516115986060850182611414565b5060808201516115ab6080850182611414565b5060a08201516115be60a08501826115d7565b5060c08201516115d160c085018261149f565b50505050565b6115e081611852565b82525050565b6115ef81611852565b82525050565b600060608201905061160a6000830186611432565b6116176020830185611432565b61162460408301846115e6565b949350505050565b60006080820190506116416000830187611432565b61164e6020830186611432565b61165b60408301856115e6565b61166860608301846114ae565b95945050505050565b6000602082019050818103600083015261168b8184611441565b905092915050565b600060208201905081810360008301526116ac816114bd565b9050919050565b600060208201905081810360008301526116cc816114e0565b9050919050565b600060208201905081810360008301526116ec81611503565b9050919050565b6000602082019050818103600083015261170c81611526565b9050919050565b600060208201905061172860008301846115e6565b92915050565b6000819050602082019050919050565b600081519050919050565b6000602082019050919050565b600082825260208201905092915050565b600082825260208201905092915050565b600061178382611852565b915061178e83611852565b9250827fffffffffffffffffffffffffffffffffffffffffffffffffffffffffffffffff038211156117c3576117c26118a5565b5b828201905092915050565b60006117d982611852565b91506117e483611852565b9250828210156117f7576117f66118a5565b5b828203905092915050565b600061180d82611832565b9050919050565b600061181f82611832565b9050919050565b60008115159050919050565b600073ffffffffffffffffffffffffffffffffffffffff82169050919050565b6000819050919050565b600061186782611852565b91507fffffffffffffffffffffffffffffffffffffffffffffffffffffffffffffffff82141561189a576118996118a5565b5b600182019050919050565b7f4e487b7100000000000000000000000000000000000000000000000000000000600052601160045260246000fd5b7f5072696365206d75737420626520657175616c20746f206c6c697374696e672060008201527f7072696365000000000000000000000000000000000000000000000000000000602082015250565b7f506c65617365207375626d6974207468652061736b696e67207072696365206960008201527f6e206f7264657220746f20636f6d706c65746520746865207075726368617365602082015250565b7f5072696365206d75737420626520686967686572207468616e20302077656900600082015250565b7f5265656e7472616e637947756172643a207265656e7472616e742063616c6c00600082015250565b6119cd81611802565b81146119d857600080fd5b50565b6119e481611852565b81146119ef57600080fd5b5056fea2646970667358221220642956bc86a191372f8959695019d9e3b03e7d050d976e2ffb584395f320161e64736f6c63430008040033",
  "linkReferences": {},
  "deployedLinkReferences": {}
}