{
  "_format": "hh-sol-artifact-1",
  "contractName": "CardMarketPlace",
  "sourceName": "contracts/CardMarketPlace.sol",
  "abi": [
    {
      "inputs": [],
      "stateMutability": "nonpayable",
      "type": "constructor"
    },
    {
      "anonymous": false,
      "inputs": [
        {
          "indexed": true,
          "internalType": "uint256",
          "name": "itemId",
          "type": "uint256"
        },
        {
          "indexed": true,
          "internalType": "address",
          "name": "nftContract",
          "type": "address"
        },
        {
          "indexed": true,
          "internalType": "uint256",
          "name": "tokenId",
          "type": "uint256"
        },
        {
          "indexed": false,
          "internalType": "address",
          "name": "seller",
          "type": "address"
        },
        {
          "indexed": false,
          "internalType": "address",
          "name": "owner",
          "type": "address"
        },
        {
          "indexed": false,
          "internalType": "uint256",
          "name": "price",
          "type": "uint256"
        },
        {
          "indexed": false,
          "internalType": "bool",
          "name": "sold",
          "type": "bool"
        },
        {
          "indexed": false,
          "internalType": "uint256",
          "name": "stars",
          "type": "uint256"
        },
        {
          "indexed": false,
          "internalType": "enum CardMarketPlace.CardType",
          "name": "cardType",
          "type": "uint8"
        }
      ],
      "name": "MarketItemCreated",
      "type": "event"
    },
    {
      "inputs": [],
      "name": "contractBalance",
      "outputs": [
        {
          "internalType": "uint256",
          "name": "",
          "type": "uint256"
        }
      ],
      "stateMutability": "view",
      "type": "function"
    },
    {
      "inputs": [],
      "name": "contractOwner",
      "outputs": [
        {
          "internalType": "address",
          "name": "",
          "type": "address"
        }
      ],
      "stateMutability": "view",
      "type": "function"
    },
    {
      "inputs": [
        {
          "internalType": "address",
          "name": "_nftContract",
          "type": "address"
        },
        {
          "internalType": "uint256",
          "name": "_tokenId",
          "type": "uint256"
        },
        {
          "internalType": "uint256",
          "name": "_price",
          "type": "uint256"
        },
        {
          "internalType": "uint256",
          "name": "_stars",
          "type": "uint256"
        },
        {
          "internalType": "enum CardMarketPlace.CardType",
          "name": "_cardType",
          "type": "uint8"
        }
      ],
      "name": "createMarketItem",
      "outputs": [],
      "stateMutability": "payable",
      "type": "function"
    },
    {
      "inputs": [
        {
          "internalType": "address",
          "name": "_nftContract",
          "type": "address"
        },
        {
          "internalType": "uint256",
          "name": "_itemId",
          "type": "uint256"
        }
      ],
      "name": "createMarketSale",
      "outputs": [],
      "stateMutability": "payable",
      "type": "function"
    },
    {
      "inputs": [],
      "name": "fetchItemsCreated",
      "outputs": [
        {
          "components": [
            {
              "internalType": "uint256",
              "name": "itemId",
              "type": "uint256"
            },
            {
              "internalType": "address",
              "name": "nftContract",
              "type": "address"
            },
            {
              "internalType": "uint256",
              "name": "tokenId",
              "type": "uint256"
            },
            {
              "internalType": "address payable",
              "name": "seller",
              "type": "address"
            },
            {
              "internalType": "address payable",
              "name": "owner",
              "type": "address"
            },
            {
              "internalType": "uint256",
              "name": "price",
              "type": "uint256"
            },
            {
              "internalType": "bool",
              "name": "sold",
              "type": "bool"
            },
            {
              "internalType": "uint256",
              "name": "stars",
              "type": "uint256"
            },
            {
              "internalType": "enum CardMarketPlace.CardType",
              "name": "cardType",
              "type": "uint8"
            }
          ],
          "internalType": "struct CardMarketPlace.MarketItem[]",
          "name": "",
          "type": "tuple[]"
        }
      ],
      "stateMutability": "view",
      "type": "function"
    },
    {
      "inputs": [],
      "name": "fetchMarketItems",
      "outputs": [
        {
          "components": [
            {
              "internalType": "uint256",
              "name": "itemId",
              "type": "uint256"
            },
            {
              "internalType": "address",
              "name": "nftContract",
              "type": "address"
            },
            {
              "internalType": "uint256",
              "name": "tokenId",
              "type": "uint256"
            },
            {
              "internalType": "address payable",
              "name": "seller",
              "type": "address"
            },
            {
              "internalType": "address payable",
              "name": "owner",
              "type": "address"
            },
            {
              "internalType": "uint256",
              "name": "price",
              "type": "uint256"
            },
            {
              "internalType": "bool",
              "name": "sold",
              "type": "bool"
            },
            {
              "internalType": "uint256",
              "name": "stars",
              "type": "uint256"
            },
            {
              "internalType": "enum CardMarketPlace.CardType",
              "name": "cardType",
              "type": "uint8"
            }
          ],
          "internalType": "struct CardMarketPlace.MarketItem[]",
          "name": "",
          "type": "tuple[]"
        }
      ],
      "stateMutability": "view",
      "type": "function"
    },
    {
      "inputs": [],
      "name": "fetchMyNfts",
      "outputs": [
        {
          "components": [
            {
              "internalType": "uint256",
              "name": "itemId",
              "type": "uint256"
            },
            {
              "internalType": "address",
              "name": "nftContract",
              "type": "address"
            },
            {
              "internalType": "uint256",
              "name": "tokenId",
              "type": "uint256"
            },
            {
              "internalType": "address payable",
              "name": "seller",
              "type": "address"
            },
            {
              "internalType": "address payable",
              "name": "owner",
              "type": "address"
            },
            {
              "internalType": "uint256",
              "name": "price",
              "type": "uint256"
            },
            {
              "internalType": "bool",
              "name": "sold",
              "type": "bool"
            },
            {
              "internalType": "uint256",
              "name": "stars",
              "type": "uint256"
            },
            {
              "internalType": "enum CardMarketPlace.CardType",
              "name": "cardType",
              "type": "uint8"
            }
          ],
          "internalType": "struct CardMarketPlace.MarketItem[]",
          "name": "",
          "type": "tuple[]"
        }
      ],
      "stateMutability": "view",
      "type": "function"
    },
    {
      "inputs": [],
      "name": "fetchSpecials",
      "outputs": [
        {
          "components": [
            {
              "internalType": "uint256",
              "name": "itemId",
              "type": "uint256"
            },
            {
              "internalType": "address",
              "name": "nftContract",
              "type": "address"
            },
            {
              "internalType": "uint256",
              "name": "tokenId",
              "type": "uint256"
            },
            {
              "internalType": "address payable",
              "name": "seller",
              "type": "address"
            },
            {
              "internalType": "address payable",
              "name": "owner",
              "type": "address"
            },
            {
              "internalType": "uint256",
              "name": "price",
              "type": "uint256"
            },
            {
              "internalType": "bool",
              "name": "sold",
              "type": "bool"
            },
            {
              "internalType": "uint256",
              "name": "stars",
              "type": "uint256"
            },
            {
              "internalType": "enum CardMarketPlace.CardType",
              "name": "cardType",
              "type": "uint8"
            }
          ],
          "internalType": "struct CardMarketPlace.MarketItem[]",
          "name": "",
          "type": "tuple[]"
        }
      ],
      "stateMutability": "view",
      "type": "function"
    },
    {
      "inputs": [
        {
          "internalType": "uint256",
          "name": "_cardId",
          "type": "uint256"
        }
      ],
      "name": "getCardPrice",
      "outputs": [
        {
          "internalType": "uint256",
          "name": "",
          "type": "uint256"
        }
      ],
      "stateMutability": "view",
      "type": "function"
    },
    {
      "inputs": [
        {
          "internalType": "uint256",
          "name": "_cardId",
          "type": "uint256"
        }
      ],
      "name": "getCardType",
      "outputs": [
        {
          "internalType": "enum CardMarketPlace.CardType",
          "name": "",
          "type": "uint8"
        }
      ],
      "stateMutability": "view",
      "type": "function"
    },
    {
      "inputs": [],
      "name": "getListingPrice",
      "outputs": [
        {
          "internalType": "uint256",
          "name": "",
          "type": "uint256"
        }
      ],
      "stateMutability": "view",
      "type": "function"
    },
    {
      "inputs": [
        {
          "internalType": "address",
          "name": "_nftContract",
          "type": "address"
        },
        {
          "internalType": "uint256",
          "name": "_itemId",
          "type": "uint256"
        },
        {
          "internalType": "uint256",
          "name": "_price",
          "type": "uint256"
        }
      ],
      "name": "reSellMarketItem",
      "outputs": [],
      "stateMutability": "payable",
      "type": "function"
    },
    {
      "inputs": [
        {
          "internalType": "address",
          "name": "_nftContract",
          "type": "address"
        },
        {
          "internalType": "uint256[]",
          "name": "_tokenIdSell",
          "type": "uint256[]"
        },
        {
          "internalType": "uint256",
          "name": "_tokenIdBuy",
          "type": "uint256"
        }
      ],
      "name": "tradeForSpecial",
      "outputs": [],
      "stateMutability": "payable",
      "type": "function"
    }
  ],
  "bytecode": "0x60806040526658d15e1762800060045534801561001b57600080fd5b50600160008190555033600360006101000a81548173ffffffffffffffffffffffffffffffffffffffff021916908373ffffffffffffffffffffffffffffffffffffffff1602179055506135cf806100746000396000f3fe6080604052600436106100c25760003560e01c80636866537d1161007f578063c23b139e11610059578063c23b139e14610250578063ce606ee01461026c578063e556f35814610297578063f064c32e146102b3576100c2565b80636866537d146101cc5780638b7afe2e14610209578063a943ea7814610234576100c2565b80630f08efe0146100c7578063128ae712146100f257806312e855851461011d57806348dccd56146101485780634b35d49f14610185578063627a9f44146101a1575b600080fd5b3480156100d357600080fd5b506100dc6102de565b6040516100e99190612ec4565b60405180910390f35b3480156100fe57600080fd5b5061010761067d565b6040516101149190612ec4565b60405180910390f35b34801561012957600080fd5b50610132610aa9565b60405161013f9190613061565b60405180910390f35b34801561015457600080fd5b5061016f600480360381019061016a9190612ab2565b610ab3565b60405161017c9190612ee6565b60405180910390f35b61019f600480360381019061019a9190612949565b610ae5565b005b3480156101ad57600080fd5b506101b6611221565b6040516101c39190612ec4565b60405180910390f35b3480156101d857600080fd5b506101f360048036038101906101ee9190612ab2565b6116af565b6040516102009190613061565b60405180910390f35b34801561021557600080fd5b5061021e6116d4565b60405161022b9190613061565b60405180910390f35b61024e600480360381019061024991906129ec565b6116dc565b005b61026a600480360381019061026591906129b0565b611a51565b005b34801561027857600080fd5b50610281611e36565b60405161028e9190612e11565b60405180910390f35b6102b160048036038101906102ac9190612a3b565b611e60565b005b3480156102bf57600080fd5b506102c8612300565b6040516102d59190612ec4565b60405180910390f35b606060006102ec600161272c565b905060006102fa600261272c565b82610305919061316d565b90506000808267ffffffffffffffff81111561034a577f4e487b7100000000000000000000000000000000000000000000000000000000600052604160045260246000fd5b60405190808252806020026020018201604052801561038357816020015b6103706127ac565b8152602001906001900390816103685790505b50905060005b8481101561067257600073ffffffffffffffffffffffffffffffffffffffff16600560006001846103ba9190613117565b815260200190815260200160002060040160009054906101000a900473ffffffffffffffffffffffffffffffffffffffff1673ffffffffffffffffffffffffffffffffffffffff16141561065f5760006001826104179190613117565b905060006005600083815260200190815260200160002090508060405180610120016040529081600082015481526020016001820160009054906101000a900473ffffffffffffffffffffffffffffffffffffffff1673ffffffffffffffffffffffffffffffffffffffff1673ffffffffffffffffffffffffffffffffffffffff168152602001600282015481526020016003820160009054906101000a900473ffffffffffffffffffffffffffffffffffffffff1673ffffffffffffffffffffffffffffffffffffffff1673ffffffffffffffffffffffffffffffffffffffff1681526020016004820160009054906101000a900473ffffffffffffffffffffffffffffffffffffffff1673ffffffffffffffffffffffffffffffffffffffff1673ffffffffffffffffffffffffffffffffffffffff168152602001600582015481526020016006820160009054906101000a900460ff16151515158152602001600782015481526020016008820160009054906101000a900460ff1660038111156105cd577f4e487b7100000000000000000000000000000000000000000000000000000000600052602160045260246000fd5b6003811115610605577f4e487b7100000000000000000000000000000000000000000000000000000000600052602160045260246000fd5b81525050848681518110610642577f4e487b7100000000000000000000000000000000000000000000000000000000600052603260045260246000fd5b602002602001018190525060018561065a9190613117565b945050505b808061066a90613251565b915050610389565b508094505050505090565b6060600061068b600161272c565b905060008060005b83811015610734573373ffffffffffffffffffffffffffffffffffffffff16600560006001846106c39190613117565b815260200190815260200160002060040160009054906101000a900473ffffffffffffffffffffffffffffffffffffffff1673ffffffffffffffffffffffffffffffffffffffff1614156107215760018361071e9190613117565b92505b808061072c90613251565b915050610693565b5060008267ffffffffffffffff811115610777577f4e487b7100000000000000000000000000000000000000000000000000000000600052604160045260246000fd5b6040519080825280602002602001820160405280156107b057816020015b61079d6127ac565b8152602001906001900390816107955790505b50905060005b84811015610a9e573373ffffffffffffffffffffffffffffffffffffffff16600560006001846107e69190613117565b815260200190815260200160002060040160009054906101000a900473ffffffffffffffffffffffffffffffffffffffff1673ffffffffffffffffffffffffffffffffffffffff161415610a8b5760006001826108439190613117565b905060006005600083815260200190815260200160002090508060405180610120016040529081600082015481526020016001820160009054906101000a900473ffffffffffffffffffffffffffffffffffffffff1673ffffffffffffffffffffffffffffffffffffffff1673ffffffffffffffffffffffffffffffffffffffff168152602001600282015481526020016003820160009054906101000a900473ffffffffffffffffffffffffffffffffffffffff1673ffffffffffffffffffffffffffffffffffffffff1673ffffffffffffffffffffffffffffffffffffffff1681526020016004820160009054906101000a900473ffffffffffffffffffffffffffffffffffffffff1673ffffffffffffffffffffffffffffffffffffffff1673ffffffffffffffffffffffffffffffffffffffff168152602001600582015481526020016006820160009054906101000a900460ff16151515158152602001600782015481526020016008820160009054906101000a900460ff1660038111156109f9577f4e487b7100000000000000000000000000000000000000000000000000000000600052602160045260246000fd5b6003811115610a31577f4e487b7100000000000000000000000000000000000000000000000000000000600052602160045260246000fd5b81525050848681518110610a6e577f4e487b7100000000000000000000000000000000000000000000000000000000600052603260045260246000fd5b6020026020010181905250600185610a869190613117565b945050505b8080610a9690613251565b9150506107b6565b508094505050505090565b6000600454905090565b6000806005600084815260200190815260200160002060080160009054906101000a900460ff16905080915050919050565b60026000541415610b2b576040517f08c379a0000000000000000000000000000000000000000000000000000000008152600401610b2290613041565b60405180910390fd5b6002600081905550600080600090505b8351811015610db55760056000858381518110610b81577f4e487b7100000000000000000000000000000000000000000000000000000000600052603260045260246000fd5b602002602001015181526020019081526020016000206007015482610ba69190613117565b915060056000858381518110610be5577f4e487b7100000000000000000000000000000000000000000000000000000000600052603260045260246000fd5b6020026020010151815260200190815260200160002060040160009054906101000a900473ffffffffffffffffffffffffffffffffffffffff1673ffffffffffffffffffffffffffffffffffffffff163373ffffffffffffffffffffffffffffffffffffffff1614610c8c576040517f08c379a0000000000000000000000000000000000000000000000000000000008152600401610c8390612f61565b60405180910390fd5b60006003811115610cc6577f4e487b7100000000000000000000000000000000000000000000000000000000600052602160045260246000fd5b60056000868481518110610d03577f4e487b7100000000000000000000000000000000000000000000000000000000600052603260045260246000fd5b6020026020010151815260200190815260200160002060080160009054906101000a900460ff166003811115610d62577f4e487b7100000000000000000000000000000000000000000000000000000000600052602160045260246000fd5b14610da2576040517f08c379a0000000000000000000000000000000000000000000000000000000008152600401610d9990612f21565b60405180910390fd5b8080610dad90613251565b915050610b3b565b506005600083815260200190815260200160002060070154811015610e0f576040517f08c379a0000000000000000000000000000000000000000000000000000000008152600401610e0690612fe1565b60405180910390fd5b60005b83518110156110bf57600060056000868481518110610e5a577f4e487b7100000000000000000000000000000000000000000000000000000000600052603260045260246000fd5b602002602001015181526020019081526020016000206002015490508573ffffffffffffffffffffffffffffffffffffffff166323b872dd3330846040518463ffffffff1660e01b8152600401610eb393929190612e2c565b600060405180830381600087803b158015610ecd57600080fd5b505af1158015610ee1573d6000803e3d6000fd5b50505050610eef600261273a565b600060056000878581518110610f2e577f4e487b7100000000000000000000000000000000000000000000000000000000600052603260045260246000fd5b6020026020010151815260200190815260200160002060040160006101000a81548173ffffffffffffffffffffffffffffffffffffffff021916908373ffffffffffffffffffffffffffffffffffffffff160217905550600360009054906101000a900473ffffffffffffffffffffffffffffffffffffffff1660056000878581518110610fe5577f4e487b7100000000000000000000000000000000000000000000000000000000600052603260045260246000fd5b6020026020010151815260200190815260200160002060030160006101000a81548173ffffffffffffffffffffffffffffffffffffffff021916908373ffffffffffffffffffffffffffffffffffffffff16021790555060006005600087858151811061107b577f4e487b7100000000000000000000000000000000000000000000000000000000600052603260045260246000fd5b6020026020010151815260200190815260200160002060060160006101000a81548160ff0219169083151502179055505080806110b790613251565b915050610e12565b508373ffffffffffffffffffffffffffffffffffffffff166323b872dd3033856040518463ffffffff1660e01b81526004016110fd93929190612e2c565b600060405180830381600087803b15801561111757600080fd5b505af115801561112b573d6000803e3d6000fd5b50505050336005600084815260200190815260200160002060040160006101000a81548173ffffffffffffffffffffffffffffffffffffffff021916908373ffffffffffffffffffffffffffffffffffffffff16021790555060006005600084815260200190815260200160002060030160006101000a81548173ffffffffffffffffffffffffffffffffffffffff021916908373ffffffffffffffffffffffffffffffffffffffff16021790555060016005600084815260200190815260200160002060060160006101000a81548160ff0219169083151502179055506112136002612796565b506001600081905550505050565b6060600061122f600161272c565b905060008060005b8381101561130957600380811115611278577f4e487b7100000000000000000000000000000000000000000000000000000000600052602160045260246000fd5b600560006001846112899190613117565b815260200190815260200160002060080160009054906101000a900460ff1660038111156112e0577f4e487b7100000000000000000000000000000000000000000000000000000000600052602160045260246000fd5b14156112f6576001826112f39190613117565b91505b808061130190613251565b915050611237565b5060008167ffffffffffffffff81111561134c577f4e487b7100000000000000000000000000000000000000000000000000000000600052604160045260246000fd5b60405190808252806020026020018201604052801561138557816020015b6113726127ac565b81526020019060019003908161136a5790505b50905060005b848110156116a4576003808111156113cc577f4e487b7100000000000000000000000000000000000000000000000000000000600052602160045260246000fd5b600560006001846113dd9190613117565b815260200190815260200160002060080160009054906101000a900460ff166003811115611434577f4e487b7100000000000000000000000000000000000000000000000000000000600052602160045260246000fd5b14156116915760006001826114499190613117565b905060006005600083815260200190815260200160002090508060405180610120016040529081600082015481526020016001820160009054906101000a900473ffffffffffffffffffffffffffffffffffffffff1673ffffffffffffffffffffffffffffffffffffffff1673ffffffffffffffffffffffffffffffffffffffff168152602001600282015481526020016003820160009054906101000a900473ffffffffffffffffffffffffffffffffffffffff1673ffffffffffffffffffffffffffffffffffffffff1673ffffffffffffffffffffffffffffffffffffffff1681526020016004820160009054906101000a900473ffffffffffffffffffffffffffffffffffffffff1673ffffffffffffffffffffffffffffffffffffffff1673ffffffffffffffffffffffffffffffffffffffff168152602001600582015481526020016006820160009054906101000a900460ff16151515158152602001600782015481526020016008820160009054906101000a900460ff1660038111156115ff577f4e487b7100000000000000000000000000000000000000000000000000000000600052602160045260246000fd5b6003811115611637577f4e487b7100000000000000000000000000000000000000000000000000000000600052602160045260246000fd5b81525050848781518110611674577f4e487b7100000000000000000000000000000000000000000000000000000000600052603260045260246000fd5b602002602001018190525060018661168c9190613117565b955050505b808061169c90613251565b91505061138b565b508094505050505090565b6000806005600084815260200190815260200160002060050154905080915050919050565b600047905090565b60026000541415611722576040517f08c379a000000000000000000000000000000000000000000000000000000000815260040161171990613041565b60405180910390fd5b60026000819055506000811161176d576040517f08c379a000000000000000000000000000000000000000000000000000000000815260040161176490612f81565b60405180910390fd5b60045434146117b1576040517f08c379a00000000000000000000000000000000000000000000000000000000081526004016117a890612f01565b60405180910390fd5b6005600083815260200190815260200160002060040160009054906101000a900473ffffffffffffffffffffffffffffffffffffffff1673ffffffffffffffffffffffffffffffffffffffff163373ffffffffffffffffffffffffffffffffffffffff1614611855576040517f08c379a000000000000000000000000000000000000000000000000000000000815260040161184c90612f61565b60405180910390fd5b6000600560008481526020019081526020016000206002015490508373ffffffffffffffffffffffffffffffffffffffff166323b872dd3330846040518463ffffffff1660e01b81526004016118ad93929190612e2c565b600060405180830381600087803b1580156118c757600080fd5b505af11580156118db573d6000803e3d6000fd5b5050505081600560008581526020019081526020016000206005018190555060006005600085815260200190815260200160002060040160006101000a81548173ffffffffffffffffffffffffffffffffffffffff021916908373ffffffffffffffffffffffffffffffffffffffff160217905550336005600085815260200190815260200160002060030160006101000a81548173ffffffffffffffffffffffffffffffffffffffff021916908373ffffffffffffffffffffffffffffffffffffffff16021790555060006005600085815260200190815260200160002060060160006101000a81548160ff02191690831515021790555060006005600085815260200190815260200160002060080160006101000a81548160ff02191690836003811115611a34577f4e487b7100000000000000000000000000000000000000000000000000000000600052602160045260246000fd5b0217905550611a43600261273a565b506001600081905550505050565b60026000541415611a97576040517f08c379a0000000000000000000000000000000000000000000000000000000008152600401611a8e90613041565b60405180910390fd5b6002600081905550600060056000838152602001908152602001600020600501549050600060056000848152602001908152602001600020600201549050813414611b17576040517f08c379a0000000000000000000000000000000000000000000000000000000008152600401611b0e90612fa1565b60405180910390fd5b600380811115611b50577f4e487b7100000000000000000000000000000000000000000000000000000000600052602160045260246000fd5b6005600085815260200190815260200160002060080160009054906101000a900460ff166003811115611bac577f4e487b7100000000000000000000000000000000000000000000000000000000600052602160045260246000fd5b1415611bed576040517f08c379a0000000000000000000000000000000000000000000000000000000008152600401611be490613001565b60405180910390fd5b6005600084815260200190815260200160002060030160009054906101000a900473ffffffffffffffffffffffffffffffffffffffff1673ffffffffffffffffffffffffffffffffffffffff166108fc349081150290604051600060405180830381858888f19350505050158015611c69573d6000803e3d6000fd5b508373ffffffffffffffffffffffffffffffffffffffff166323b872dd3033846040518463ffffffff1660e01b8152600401611ca793929190612e2c565b600060405180830381600087803b158015611cc157600080fd5b505af1158015611cd5573d6000803e3d6000fd5b50505050336005600085815260200190815260200160002060040160006101000a81548173ffffffffffffffffffffffffffffffffffffffff021916908373ffffffffffffffffffffffffffffffffffffffff16021790555060006005600085815260200190815260200160002060030160006101000a81548173ffffffffffffffffffffffffffffffffffffffff021916908373ffffffffffffffffffffffffffffffffffffffff16021790555060016005600085815260200190815260200160002060060160006101000a81548160ff021916908315150217905550611dbd6002612796565b600360009054906101000a900473ffffffffffffffffffffffffffffffffffffffff1673ffffffffffffffffffffffffffffffffffffffff166108fc6004549081150290604051600060405180830381858888f19350505050158015611e27573d6000803e3d6000fd5b50505060016000819055505050565b6000600360009054906101000a900473ffffffffffffffffffffffffffffffffffffffff16905090565b60026000541415611ea6576040517f08c379a0000000000000000000000000000000000000000000000000000000008152600401611e9d90613041565b60405180910390fd5b600260008190555060008311611ef1576040517f08c379a0000000000000000000000000000000000000000000000000000000008152600401611ee890612fc1565b60405180910390fd5b6004543414611f35576040517f08c379a0000000000000000000000000000000000000000000000000000000008152600401611f2c90612f01565b60405180910390fd5b600360009054906101000a900473ffffffffffffffffffffffffffffffffffffffff1673ffffffffffffffffffffffffffffffffffffffff163373ffffffffffffffffffffffffffffffffffffffff1614611fc5576040517f08c379a0000000000000000000000000000000000000000000000000000000008152600401611fbc90613021565b60405180910390fd5b611fcf6001612796565b6000611fdb600161272c565b90506040518061012001604052808281526020018773ffffffffffffffffffffffffffffffffffffffff1681526020018681526020013373ffffffffffffffffffffffffffffffffffffffff168152602001600073ffffffffffffffffffffffffffffffffffffffff168152602001858152602001600015158152602001848152602001836003811115612098577f4e487b7100000000000000000000000000000000000000000000000000000000600052602160045260246000fd5b815250600560008381526020019081526020016000206000820151816000015560208201518160010160006101000a81548173ffffffffffffffffffffffffffffffffffffffff021916908373ffffffffffffffffffffffffffffffffffffffff1602179055506040820151816002015560608201518160030160006101000a81548173ffffffffffffffffffffffffffffffffffffffff021916908373ffffffffffffffffffffffffffffffffffffffff16021790555060808201518160040160006101000a81548173ffffffffffffffffffffffffffffffffffffffff021916908373ffffffffffffffffffffffffffffffffffffffff16021790555060a0820151816005015560c08201518160060160006101000a81548160ff02191690831515021790555060e082015181600701556101008201518160080160006101000a81548160ff0219169083600381111561221d577f4e487b7100000000000000000000000000000000000000000000000000000000600052602160045260246000fd5b02179055509050508573ffffffffffffffffffffffffffffffffffffffff166323b872dd3330886040518463ffffffff1660e01b815260040161226293929190612e2c565b600060405180830381600087803b15801561227c57600080fd5b505af1158015612290573d6000803e3d6000fd5b50505050848673ffffffffffffffffffffffffffffffffffffffff16827f3dd446289c0b7aca63660448316c420a5197138d5db92c0dfdad61ee1980266a3360008960008a8a6040516122e896959493929190612e63565b60405180910390a45060016000819055505050505050565b6060600061230e600161272c565b905060008060005b838110156123b7573373ffffffffffffffffffffffffffffffffffffffff16600560006001846123469190613117565b815260200190815260200160002060030160009054906101000a900473ffffffffffffffffffffffffffffffffffffffff1673ffffffffffffffffffffffffffffffffffffffff1614156123a4576001836123a19190613117565b92505b80806123af90613251565b915050612316565b5060008267ffffffffffffffff8111156123fa577f4e487b7100000000000000000000000000000000000000000000000000000000600052604160045260246000fd5b60405190808252806020026020018201604052801561243357816020015b6124206127ac565b8152602001906001900390816124185790505b50905060005b84811015612721573373ffffffffffffffffffffffffffffffffffffffff16600560006001846124699190613117565b815260200190815260200160002060030160009054906101000a900473ffffffffffffffffffffffffffffffffffffffff1673ffffffffffffffffffffffffffffffffffffffff16141561270e5760006001826124c69190613117565b905060006005600083815260200190815260200160002090508060405180610120016040529081600082015481526020016001820160009054906101000a900473ffffffffffffffffffffffffffffffffffffffff1673ffffffffffffffffffffffffffffffffffffffff1673ffffffffffffffffffffffffffffffffffffffff168152602001600282015481526020016003820160009054906101000a900473ffffffffffffffffffffffffffffffffffffffff1673ffffffffffffffffffffffffffffffffffffffff1673ffffffffffffffffffffffffffffffffffffffff1681526020016004820160009054906101000a900473ffffffffffffffffffffffffffffffffffffffff1673ffffffffffffffffffffffffffffffffffffffff1673ffffffffffffffffffffffffffffffffffffffff168152602001600582015481526020016006820160009054906101000a900460ff16151515158152602001600782015481526020016008820160009054906101000a900460ff16600381111561267c577f4e487b7100000000000000000000000000000000000000000000000000000000600052602160045260246000fd5b60038111156126b4577f4e487b7100000000000000000000000000000000000000000000000000000000600052602160045260246000fd5b815250508486815181106126f1577f4e487b7100000000000000000000000000000000000000000000000000000000600052603260045260246000fd5b60200260200101819052506001856127099190613117565b945050505b808061271990613251565b915050612439565b508094505050505090565b600081600001549050919050565b60008160000154905060008111612786576040517f08c379a000000000000000000000000000000000000000000000000000000000815260040161277d90612f41565b60405180910390fd5b6001810382600001819055505050565b6001816000016000828254019250508190555050565b60405180610120016040528060008152602001600073ffffffffffffffffffffffffffffffffffffffff16815260200160008152602001600073ffffffffffffffffffffffffffffffffffffffff168152602001600073ffffffffffffffffffffffffffffffffffffffff16815260200160008152602001600015158152602001600081526020016000600381111561286e577f4e487b7100000000000000000000000000000000000000000000000000000000600052602160045260246000fd5b81525090565b6000612887612882846130a1565b61307c565b905080838252602082019050828560208602820111156128a657600080fd5b60005b858110156128d657816128bc8882612934565b8452602084019350602083019250506001810190506128a9565b5050509392505050565b6000813590506128ef8161355b565b92915050565b600082601f83011261290657600080fd5b8135612916848260208601612874565b91505092915050565b60008135905061292e81613572565b92915050565b60008135905061294381613582565b92915050565b60008060006060848603121561295e57600080fd5b600061296c868287016128e0565b935050602084013567ffffffffffffffff81111561298957600080fd5b612995868287016128f5565b92505060406129a686828701612934565b9150509250925092565b600080604083850312156129c357600080fd5b60006129d1858286016128e0565b92505060206129e285828601612934565b9150509250929050565b600080600060608486031215612a0157600080fd5b6000612a0f868287016128e0565b9350506020612a2086828701612934565b9250506040612a3186828701612934565b9150509250925092565b600080600080600060a08688031215612a5357600080fd5b6000612a61888289016128e0565b9550506020612a7288828901612934565b9450506040612a8388828901612934565b9350506060612a9488828901612934565b9250506080612aa58882890161291f565b9150509295509295909350565b600060208284031215612ac457600080fd5b6000612ad284828501612934565b91505092915050565b6000612ae78383612d3c565b6101208301905092915050565b612afd816131b3565b82525050565b612b0c816131a1565b82525050565b612b1b816131a1565b82525050565b6000612b2c826130dd565b612b3681856130f5565b9350612b41836130cd565b8060005b83811015612b72578151612b598882612adb565b9750612b64836130e8565b925050600181019050612b45565b5085935050505092915050565b612b88816131c5565b82525050565b612b97816131c5565b82525050565b612ba68161320e565b82525050565b612bb58161320e565b82525050565b6000612bc8602583613106565b9150612bd382613338565b604082019050919050565b6000612beb600b83613106565b9150612bf682613387565b602082019050919050565b6000612c0e601b83613106565b9150612c19826133b0565b602082019050919050565b6000612c31600d83613106565b9150612c3c826133d9565b602082019050919050565b6000612c54600e83613106565b9150612c5f82613402565b602082019050919050565b6000612c77604083613106565b9150612c828261342b565b604082019050919050565b6000612c9a601f83613106565b9150612ca58261347a565b602082019050919050565b6000612cbd601083613106565b9150612cc8826134a3565b602082019050919050565b6000612ce0601683613106565b9150612ceb826134cc565b602082019050919050565b6000612d03601d83613106565b9150612d0e826134f5565b602082019050919050565b6000612d26601f83613106565b9150612d318261351e565b602082019050919050565b61012082016000820151612d536000850182612df3565b506020820151612d666020850182612b03565b506040820151612d796040850182612df3565b506060820151612d8c6060850182612af4565b506080820151612d9f6080850182612af4565b5060a0820151612db260a0850182612df3565b5060c0820151612dc560c0850182612b7f565b5060e0820151612dd860e0850182612df3565b50610100820151612ded610100850182612b9d565b50505050565b612dfc81613204565b82525050565b612e0b81613204565b82525050565b6000602082019050612e266000830184612b12565b92915050565b6000606082019050612e416000830186612b12565b612e4e6020830185612b12565b612e5b6040830184612e02565b949350505050565b600060c082019050612e786000830189612b12565b612e856020830188612b12565b612e926040830187612e02565b612e9f6060830186612b8e565b612eac6080830185612e02565b612eb960a0830184612bac565b979650505050505050565b60006020820190508181036000830152612ede8184612b21565b905092915050565b6000602082019050612efb6000830184612bac565b92915050565b60006020820190508181036000830152612f1a81612bbb565b9050919050565b60006020820190508181036000830152612f3a81612bde565b9050919050565b60006020820190508181036000830152612f5a81612c01565b9050919050565b60006020820190508181036000830152612f7a81612c24565b9050919050565b60006020820190508181036000830152612f9a81612c47565b9050919050565b60006020820190508181036000830152612fba81612c6a565b9050919050565b60006020820190508181036000830152612fda81612c8d565b9050919050565b60006020820190508181036000830152612ffa81612cb0565b9050919050565b6000602082019050818103600083015261301a81612cd3565b9050919050565b6000602082019050818103600083015261303a81612cf6565b9050919050565b6000602082019050818103600083015261305a81612d19565b9050919050565b60006020820190506130766000830184612e02565b92915050565b6000613086613097565b90506130928282613220565b919050565b6000604051905090565b600067ffffffffffffffff8211156130bc576130bb6132f8565b5b602082029050602081019050919050565b6000819050602082019050919050565b600081519050919050565b6000602082019050919050565b600082825260208201905092915050565b600082825260208201905092915050565b600061312282613204565b915061312d83613204565b9250827fffffffffffffffffffffffffffffffffffffffffffffffffffffffffffffffff038211156131625761316161329a565b5b828201905092915050565b600061317882613204565b915061318383613204565b9250828210156131965761319561329a565b5b828203905092915050565b60006131ac826131e4565b9050919050565b60006131be826131e4565b9050919050565b60008115159050919050565b60008190506131df82613547565b919050565b600073ffffffffffffffffffffffffffffffffffffffff82169050919050565b6000819050919050565b6000613219826131d1565b9050919050565b61322982613327565b810181811067ffffffffffffffff82111715613248576132476132f8565b5b80604052505050565b600061325c82613204565b91507fffffffffffffffffffffffffffffffffffffffffffffffffffffffffffffffff82141561328f5761328e61329a565b5b600182019050919050565b7f4e487b7100000000000000000000000000000000000000000000000000000000600052601160045260246000fd5b7f4e487b7100000000000000000000000000000000000000000000000000000000600052602160045260246000fd5b7f4e487b7100000000000000000000000000000000000000000000000000000000600052604160045260246000fd5b6000601f19601f8301169050919050565b7f5072696365206d75737420626520657175616c20746f206c6c697374696e672060008201527f7072696365000000000000000000000000000000000000000000000000000000602082015250565b7f4e6f74204d6f6e73746572000000000000000000000000000000000000000000600082015250565b7f436f756e7465723a2064656372656d656e74206f766572666c6f770000000000600082015250565b7f4e6f7420746865206f776e657200000000000000000000000000000000000000600082015250565b7f4174206c65617374203120776569000000000000000000000000000000000000600082015250565b7f506c65617365207375626d6974207468652061736b696e67207072696365206960008201527f6e206f7264657220746f20636f6d706c65746520746865207075726368617365602082015250565b7f5072696365206d75737420626520686967686572207468616e20302077656900600082015250565b7f4e6f7420656e6f75676820737461727300000000000000000000000000000000600082015250565b7f596f752063616e277420627579207370656369616c7300000000000000000000600082015250565b7f4f6e6c79206f776e65722063616e206d696e74206e6577204e66742773000000600082015250565b7f5265656e7472616e637947756172643a207265656e7472616e742063616c6c00600082015250565b60048110613558576135576132c9565b5b50565b613564816131a1565b811461356f57600080fd5b50565b6004811061357f57600080fd5b50565b61358b81613204565b811461359657600080fd5b5056fea26469706673582212202647fe24b46c14b602f84aa188fe529fc0069841458fa0fc17d0bd799763159964736f6c63430008040033",
  "linkReferences": {},
  "deployedLinkReferences": {}
}